:020000040800F2
:10000000C8150020C50400082505000825050008BE
:10001000250500082505000825050008000000004A
:10002000000000000000000000000000250500089E
:10003000250500080000000025050008250500082A
:1000400025050008250500082505000825050008E8
:1000500025050008250500082505000825050008D8
:1000600025050008250500082505000825050008C8
:100070002505000825050008250500085D0600087F
:1000800025050008250500082505000825050008A8
:100090002505000825050008250500082505000898
:1000A0002505000825050008250500082505000888
:1000B0003D10000825050008250500082505000855
:1000C0002505000825050008250500082505000868
:1000D00025050008110B0008250500082505000866
:1000E0002505000825050008250500082505000848
:1000F0002505000825050008250500082505000838
:100100002505000825050008250500082505000827
:100110002505000825050008250500082505000817
:100120002505000825050008250500082505000807
:1001300025050008250500082505000825050008F7
:1001400025050008250500082505000825050008E7
:1001500025050008250500082505000825050008D7
:1001600025050008250500082505000825050008C7
:1001700025050008250500082505000825050008B7
:10018000250500082505000880B58AB000AF786015
:10019000396000237B6200233B620023FB61002364
:1001A000BB617B681B8A9BB27B627B6A23F44053F2
:1001B0007B623B68DB881A467B6A13437B627B6AFF
:1001C0009AB27B681A827B689B899BB27B627B6A4E
:1001D00023F4B05323F00C037B623B689A883B689E
:1001E0001B8913439AB23B685B8913439BB21A463F
:1001F0007B6A13437B627B6A9AB27B689A817B68D5
:100200009B8A9BB27B627B6A23F440737B623B6870
:100210009B891A467B6A13437B627B6A9AB27B682E
:100220009A8207F10803184601F028FD7B68304ADE
:10023000934203D07B682F4A934202D17B693B6291
:1002400001E03B693B627B689B899BB21BB2002B40
:100250000CDA3A6A13469B0013449A001A443B682E
:100260001B685B00B2FBF3F3FB610BE03A6A1346D9
:100270009B0013449A001A443B681B689B00B2FB26
:10028000F3F3FB61FB691C4AA2FB03235B091B011F
:100290007B627B6A1B09642202FB03F3FA69D31AAF
:1002A000BB617B689B899BB21BB2002B0CDABB69DC
:1002B000DB003233104AA2FB03235B0903F0070380
:1002C0007A6A13437B620BE0BB691B0132330A4A33
:1002D000A2FB03235B0903F00F037A6A13437B62DB
:1002E0007B6A9AB27B681A8100BF2837BD4680BD01
:1002F00000100140001401401F85EB5180B483B011
:1003000000AF78600B46FB70FB78002B08D07B6851
:100310009B899BB243F400539AB27B689A8107E0B1
:100320007B689B899BB223F400539AB27B689A81C5
:1003300000BF0C37BD4680BC704700BF80B483B09F
:1003400000AF78600B467B807B88C3F308039AB2CA
:100350007B689A8000BF0C37BD4680BC704700BFE9
:1003600080B483B000AF78607B689B889BB2C3F396
:1003700008039BB218460C37BD4680BC704700BFCF
:1003800080B487B000AF78600B467B8013467B70EB
:1003900000233B610023FB600023BB6000237B61E3
:1003A0007B687B617B88DBB25B09DBB23B617B886E
:1003B00003F01F03FB600122FB6802FA03F3BB603A
:1003C0003B69012B03D17B690C337B6109E03B69FD
:1003D000022B03D17B6910337B6102E07B6914330C
:1003E0007B617B78002B06D07B697A691168BA68DB
:1003F0000A431A6006E07B697A691168BA68D243D9
:100400000A401A6000BF1C37BD4680BC704700BF61
:1004100080B487B000AF78600B467B800023FB6020
:1004200000237B610023BB600023FB747B88DBB26D
:100430005B09DBB2BB607B8803F01F037B61012299
:100440007B6902FA03F37B61BB68012B07D17B68F0
:100450009B899BB21A467B6913407B6111E0BB68A4
:10046000022B07D17B681B8A9BB21A467B6913401B
:100470007B6106E07B689B8A9BB21A467B691340CE
:100480007B617B881B0A9BB2FB600122FB6802FA3E
:1004900003F3FB607B681B889BB21A46FB68134022
:1004A000FB607B69002B05D0FB68002B02D0012389
:1004B000FB7401E00023FB74FB7C18461C37BD462F
:1004C00080BC704780B582B000AF114B7B60114B90
:1004D0003B6007E03B681A1D3A607A68111D79603D
:1004E00012681A603B680C4A9342F3D30B480C49DC
:1004F0004FF000028842B8BF40F8042BFADB01F04D
:10050000C5FD01F0FFFA00BF0837BD4680BD00BF42
:10051000F478000800000020B8090020B809002085
:10052000C40D002080B400AFFEE700BF80B582B0EC
:1005300000AF0121042001F04BFC40233B6002236B
:100540003B7103237B710023BB710123FB713B468D
:100550001946074801F096FC054B40225A830222B7
:100560000621034801F04AFD00BF0837BD4680BDA3
:100570000008024080B588B000AF0121022001F0E0
:1005800045FC01214FF4001001F022FC6823BB61FF
:100590000023BB820023BB830023FB8207F11403EB
:1005A00019460E4802F09AF860233B8001237B80B5
:1005B0000023BB600023BB813B461946074802F07D
:1005C00037F90821054802F0ADF90121034802F08E
:1005D000EFF800BF2037BD4680BD00BF00040040DB
:1005E00080B590B000AF0021194801F03DFF1848D8
:1005F00001F012FE4FF020637B60164BBB60164B80
:10060000FB6040233B614FF484737B610023BB613B
:100610004FF48063FB614FF400633B624FF400636F
:100620007B620023BB624FF44033FB6200233B63D9
:1006300001237B630023BB630023FB633B1D19463F
:10064000034801F0BBFE00BF4037BD4680BD00BF80
:100650007060024034040040B40A002080B500AF4E
:100660000B490C4801F056FF0346002B0ED00849F9
:10067000084801F0A5FF0021074802F0B9F8002161
:10068000044801F0F1FE054B00221A6000BF80BD56
:10069000208000207060024000040040C40C002054
:1006A00080B500AF094B01221A60FFF799FF0122C4
:1006B0001021074801F0F4FE0121054801F0D4FEA5
:1006C0000121044802F094F800BF80BDC40C002052
:1006D000706002400004004080B582B000AF01228B
:1006E0004FF40071094802F073F90F233B710023A6
:1006F0007B710023BB710123FB713B1D184601F088
:100700008DFF00BF0837BD4680BD00BF000400401C
:1007100080B483B000AF0346FB71FB79012B0BD192
:10072000084B01221A70FB79074A084942F8231046
:10073000074B08221A6000E000BF0C37BD4680BCA2
:10074000704700BF480D0020880D0020A80D002034
:10075000B00A002080B483B000AF00237B60802308
:10076000FB70514B00221A604F4B1B685A1C4E49BC
:100770000A604E4A002122F813104B4B1B685A1C8A
:1007800049490A60494A002122F8131000237B607E
:1007900074E0474A7B6852F823309B78BB70444A28
:1007A0007B6852F823305B787B70414A7B6852F853
:1007B00023301B783B708023FB7019E03A4B1B6899
:1007C0003A4A1D2122F813107A78FB781340DBB2E5
:1007D000002B05D0344B1B68344A4C2122F81310EF
:1007E000314B1B680133304A1360FB785B08FB70A8
:1007F000FB78002BE2D18023FB7019E02A4B1B68A9
:100800002A4A1D2122F813103A78FB781340DBB2F4
:10081000002B05D0244B1B68244A4C2122F81310CE
:10082000214B1B680133204A1360FB785B08FB7087
:10083000FB78002BE2D18023FB7019E01A4B1B6878
:100840001A4A1D2122F81310BA78FB781340DBB244
:10085000002B05D0144B1B68144A4C2122F81310AE
:10086000114B1B680133104A1360FB785B08FB7067
:10087000FB78002BE2D17B6801337B600D4B1B685A
:100880007A689A4285D3084B1B685A1C06490A604D
:10089000064A002122F81310034B00221A6000BF01
:1008A0000C37BD4680BC7047AC0A0020B40A00205B
:1008B000880D0020B00A002080B500AF00BF054BB6
:1008C0001B68002BFBD1FFF745FFFFF7E9FE00BFD8
:1008D00080BD00BFC40C002080B584B000AF78603C
:1008E0000B46FB700023FB6007E00B49FB687A684E
:1008F00041F82320FB680133FB60084B1B68FA6852
:100900009A42F2D3FB78012B01D1FFF7D5FF00BF4C
:100910001037BD4680BD00BF880D0020B00A002002
:1009200080B584B000AFF860B9601346FB71094B25
:100930001B68FA689A4209D20749FB68BA6841F80D
:100940002320FB79012B01D1FFF7B6FF00BF103741
:10095000BD4680BDB00A0020880D002080B582B061
:1009600000AF0120FFF7D4FE00BF0C4B1B68002B2B
:10097000FBD1FFF795FE0120FFF7CAFE00233B7174
:1009800000237B710023BB713B1D01211846FFF73B
:10099000A3FF00BF0837BD4680BD00BFC40C0020C8
:1009A00080B582B000AF274B00221A60264B002290
:1009B0001A70264B00221A6000237B6007E0244A4D
:1009C0007B68002122F813107B6801337B607B6811
:1009D000B3F5847FF3D300237B601CE01D497A6864
:1009E00013465B0013440B4400221A7019497A68BD
:1009F00013465B0013440B44013300221A7015495F
:100A00007A6813465B0013440B44023300221A70C9
:100A10007B6801337B607B68072BDFD90A4B01229F
:100A20001A70094B1B781846FFF772FEFFF77EFD20
:100A3000FFF7A0FDFFF750FEFFF7D2FD00BF08371C
:100A4000BD4680BDC40C0020480D0020B00A002027
:100A5000B40A0020A80D002080B582B000AF0121AB
:100A6000022001F0B5F902233B710023BB71C023C2
:100A70003B600123FB7103237B713B461946084809
:100A800001F000FA07220621054801F0B7FA072213
:100A90000721034801F0B2FA00BF0837BD4680BD08
:100AA0000004024080B586B000AF0121102001F0A3
:100AB000CBF94FF41653BB600023BB820C237B821F
:100AC00000233B820023FB810023BB8107F1080345
:100AD00019460E48FFF758FB01210C48FFF70EFCA2
:100AE000012240F225510948FFF74AFC25233B71BA
:100AF0000123FB7100237B710023BB713B1D184652
:100B000001F08CFD00BF1837BD4680BD00100140CC
:100B100098B500AF40F225513248FFF779FC034603
:100B2000002B2AD0304B1B68802B0DDC2E4B1C6811
:100B30002C48FFF715FC0346DAB22C4B1A552A4B0A
:100B40001B680133284A1360294B1B687F2B02DD89
:100B5000274B00221A60264B1A68234B1B689A42C7
:100B600004D1214B1B6801331F4A13601E4B1B68C5
:100B70007F2B02DD1C4B00221A6040F227711948BE
:100B8000FFF746FC0346002B29D01A4B1A681A4B74
:100B90001B689A421DD0174B1B68184AD35CDBB206
:100BA0009BB219460F48FFF7C9FB124B1B68013374
:100BB000104A1360104B1B687F2B02DD0E4B002286
:100BC0001A600C4B1B687F2B09DD0A4B00221A6050
:100BD00005E0002240F227710248FFF7D1FB00BF79
:100BE00098BD00BF00100140BC0900202C0A002065
:100BF000B8090020C4090020C0090020C80C00204A
:100C00000FB480B5A4B000AF07F19C037B6007F17F
:100C10000C037A68D7F89810184601F099FF304B0A
:100C20001B68BB600023C7F88C3015E0BB6807F178
:100C30000C01D7F88C200A4411782A4AD154BB6899
:100C40000133BB60BB687F2B01DD0023BB60D7F89D
:100C50008C300133C7F88C3007F10C03184601F0D3
:100C6000EFFE0246D7F88C309A42DFD872B61C4BA2
:100C70001A681D4B1B689A4226D11C4B1B889BB2DD
:100C800003F08003002B1FD0BB68154A1360164B7E
:100C90001B68144AD35CDBB29BB219461348FFF7BA
:100CA0004DFB114B1B6801330F4A13600E4B1B6841
:100CB0007F2B02DD0C4B00221A60012240F22771CB
:100CC0000A48FFF75DFB02E0BB68054A136062B6A5
:100CD00000BF9037BD46BDE8804004B0704700BFFC
:100CE000C0090020C80C0020C409002000100140E9
:100CF00080B483B000AF0F4B1A680F4B1B689A4249
:100D000012D00C4B1B680D4AD35CFB71094B1B685E
:100D10000133084A1360074B1B687F2B02DD054B2C
:100D200000221A60FB7900E0002318460C37BD460C
:100D300080BC7047B8090020BC0900202C0A0020A4
:100D400080B400AF0D4B1B78682B11D10B4B5B7837
:100D5000652B0DD1094B9B786C2B09D1074BDB78A8
:100D6000702B05D1064B1B68042B01D1012300E039
:100D700000231846BD4680BC704700BF540D0020BC
:100D8000C809002080B400AF0B4B1B786F2B0DD12E
:100D9000094B5B78662B09D1074B9B78662B05D1F5
:100DA000064B1B68032B01D1012300E000231846EA
:100DB000BD4680BC704700BF540D0020C80900200C
:100DC00080B400AF0D4B1B78622B11D10B4B5B78BD
:100DD0006C2B0DD1094B9B78752B09D1074BDB7818
:100DE000652B05D1064B1B68042B01D1012300E0C4
:100DF00000231846BD4680BC704700BF540D00203C
:100E0000C809002080B400AF0F4B1B78672B15D1A9
:100E10000D4B5B78722B11D10B4B9B78652B0DD151
:100E2000094BDB78652B09D1074B1B796E2B05D15C
:100E3000064B1B68052B01D1012300E00023184657
:100E4000BD4680BC704700BF540D0020C80900207B
:100E500080B400AF0B4B1B78722B0DD1094B5B7824
:100E6000652B09D1074B9B78642B05D1064B1B687A
:100E7000032B01D1012300E000231846BD4680BCAE
:100E8000704700BF540D0020C809002080B400AF97
:100E9000094B1B786F2B09D1074B5B78662B05D16B
:100EA000054B9B78662B01D1012300E000231846F7
:100EB000BD4680BC704700BF4C0D002080B400AF21
:100EC000094B1B78002B09D1074B5B78002B05D110
:100ED000054B9B78002B01D1012300E0002318462D
:100EE000BD4680BC704700BF4C0D002080B400AFF1
:100EF0000B4B1B78622B0DD1094B5B786C2B09D106
:100F0000074B9B78752B05D1054BDB78652B01D101
:100F1000012300E000231846BD4680BC704700BF97
:100F20004C0D002080B400AF0D4B1B78672B11D106
:100F30000B4B5B78722B0DD1094B9B78652B09D13C
:100F4000074BDB78652B05D1054B1B796E2B01D147
:100F5000012300E000231846BD4680BC704700BF57
:100F60004C0D002080B400AF094B1B78722B09D1C7
:100F7000074B5B78652B05D1054B9B78642B01D122
:100F8000012300E000231846BD4680BC704700BF27
:100F90004C0D002080B582B000AF0121082000F088
:100FA00017FF4FF470433B6001233B7102237B71B9
:100FB0000023BB710023FB713B461946034800F038
:100FC00061FF00BF0837BD4680BD00BF000C024076
:100FD00080B582B000AF0121012000F0F9FE0123AD
:100FE0003B6000233B7102237B710023BB71022312
:100FF000FB713B461946034800F044FF00BF083729
:10100000BD4680BD0000024080B500AFFFF7E0FFA5
:10101000FFF7C0FF4FF40041074800F0C1FFFFF7A2
:10102000BFFCFFF719FDFFF73DFD4FF400410248FB
:1010300000F0C4FF00BF80BD000C024080B500AFCF
:1010400001214FF0804001F089FC0346002B17D0AE
:1010500001214FF0804001F0ABFC4FF400510948F2
:1010600000F09EFF084B1B68002B09D04FF4804115
:10107000044800F0B1FF044B1B68013B024A1360B7
:1010800000BF80BD000C0240D009002080B483B0B6
:1010900000AF00237B6007E0204A7B6813440022F6
:1010A0001A707B6801337B607B68322BF4DD1C4B4C
:1010B00000221A6000237B6007E01A4A7B68134411
:1010C00000221A707B6801337B607B68082BF4DD9B
:1010D00000237B6007E0144A7B68134400221A70E7
:1010E0007B6801337B607B68802BF4DD0F4B002233
:1010F0001A600F4B00221A6000237B6002E07B68BD
:1011000001337B607B68B3F5847FF8DB094B0022F9
:101110001A7000BF0C37BD4680BC7047540D0020CC
:10112000C80900204C0D00202C0A0020BC0900201A
:10113000B8090020CD09002080B483B000AF00239F
:101140007B600DE00B4A7B6813441B782C2B04D189
:10115000094B03221A70012306E07B6801337B6090
:101160007B68312BEEDD002318460C37BD4680BC72
:10117000704700BF540D0020CD09002080B592B00B
:1011800000AF00237B62FFF7DBFD0346012B1ED17E
:10119000BC48FFF735FDBC48FFF732FDBB48FFF701
:1011A0002FFDBB48FFF72CFDBA48FFF729FDBA48D1
:1011B000FFF726FDB948FFF723FDB948FFF720FDEB
:1011C000B848FFF71DFDFFF761FF00F044BCFFF7D3
:1011D000F7FD0346012B36D1FFF7C0FBB248FFF7FE
:1011E0000FFD002387F82030002387F82130FF23EC
:1011F00087F8223007F12003012219460020FFF76B
:101200008FFB00237B6417E0A84A7B6C52F82330E5
:101210005B781946A54A7B6C52F823301B78184638
:10122000A24A7B6C52F823309B780246A048FFF715
:10123000E7FC7B6C01337B647B6C072BE4DDFFF701
:1012400025FF00F008BCFFF703FE0346012B35D154
:10125000FFF784FB9748FFF7D3FCFF2387F8203084
:10126000002387F82130002387F8223007F120037C
:10127000012219460020FFF753FB00233B6417E0CF
:101280008A4A3B6C52F823305B781946874A3B6C9C
:1012900052F823301B781846844A3B6C52F82330AE
:1012A0009B7802468248FFF7ABFC3B6C01333B6402
:1012B0003B6C072BE4DDFFF7E9FECCE3FFF7A2FD73
:1012C0000346012B35D1FFF749FB7B48FFF798FC1C
:1012D000002387F82030FF2387F82130002387F888
:1012E000223007F12003012219460020FFF718FBE6
:1012F0000023FB6317E06D4AFB6B52F823305B78E9
:1013000019466A4AFB6B52F823301B781846674A25
:10131000FB6B52F823309B7802466548FFF770FC60
:10132000FB6B0133FB63FB6B072BE4DDFFF7AEFECA
:1013300091E3FFF727FD0346012B35D1FFF70EFBA5
:101340005E48FFF75DFC002387F82030002387F814
:101350002130002387F8223007F1200301221946AB
:101360000020FFF7DDFA0023BB6317E04F4ABB6B99
:1013700052F823305B7819464C4ABB6B52F8233045
:101380001B781846494ABB6B52F823309B780246BB
:101390004748FFF735FCBB6B0133BB63BB6B072BC7
:1013A000E4DDFFF773FE56E3FFF7C6FE0346012BAD
:1013B00040F04C8300237B6300233B630123FB62EB
:1013C0004FF400513E4800F0EBFDFFF7C7FAD1E2C1
:1013D0003C4A7B6B13441B782C2B0CD0394A7B6B1B
:1013E00013441978384A3B6B13440A461A703B6B16
:1013F00001333B63BBE2FFF779FD0346012B40F06D
:10140000A580FB6A013B072B00F29F8001A252F8E6
:1014100023F000BF35140008531400086B140008B3
:10142000CD140008E5140008FD1400081515000887
:101430002D150008002387F82030002387F821307D
:10144000FF2387F8223000233B63FB6A0133FB62F2
:101450007CE000233B7700237B77FF23BB770023CF
:101460003B63FB6A0133FB6270E000233B760023A1
:101470007B76FF23BB7600233B63FB6A0133FB6271
:1014800064E000BFDC740008F07400080875000810
:101490001C750008287500083475000840750008A0
:1014A0004C750008587500086C750008880D002000
:1014B0007C750008907500089C750008AC750008E4
:1014C000000C0240540D00204C0D002000233B7501
:1014D00000237B75FF23BB7500233B63FB6A01334D
:1014E000FB6233E000233B7400237B74FF23BB7457
:1014F00000233B63FB6A0133FB6227E000233B735D
:1015000000237B73FF23BB7300233B63FB6A013320
:10151000FB621BE000233B7200237B72FF23BB7244
:1015200000233B63FB6A0133FB620FE000233B7146
:1015300000237B71FF23BB7100233B63FB6A0133F4
:10154000FB62C04B02221A7000E000BFFFF7EAFC0A
:101550000346012B7DD1FB6A013B072B78D801A202
:1015600052F823F085150008A3150008BB150008E4
:10157000D3150008EB150008031600081B16000819
:1015800033160008002387F82030FF2387F8213026
:10159000002387F8223000233B63FB6A0133FB62A0
:1015A00057E000233B77FF237B770023BB770023A3
:1015B0003B63FB6A0133FB624BE000233B76FF2376
:1015C0007B760023BB7600233B63FB6A0133FB621F
:1015D0003FE000233B75FF237B750023BB75002391
:1015E0003B63FB6A0133FB6233E000233B74FF2360
:1015F0007B740023BB7400233B63FB6A0133FB62F3
:1016000027E000233B73FF237B730023BB7300237E
:101610003B63FB6A0133FB621BE000233B72FF2349
:101620007B720023BB7200233B63FB6A0133FB62C6
:101630000FE000233B71FF237B710023BB7100236C
:101640003B63FB6A0133FB627E4B02221A7000E0AF
:1016500000BFFFF71BFC0346012B7ED1FB6A013B59
:10166000072B79D801A252F823F000BF8D1600088D
:10167000AB160008C3160008DB160008F3160008B6
:101680000B170008231700083B170008002387F8F2
:101690002030002387F82130002387F822300023F0
:1016A0003B63FB6A0133FB6257E000233B77002377
:1016B0007B770023BB7700233B63FB6A0133FB622C
:1016C0004BE000233B7600237B760023BB76002390
:1016D0003B63FB6A0133FB623FE000233B75002361
:1016E0007B750023BB7500233B63FB6A0133FB6200
:1016F00033E000233B7400237B740023BB7400237E
:101700003B63FB6A0133FB6227E000233B7300234A
:101710007B730023BB7300233B63FB6A0133FB62D3
:101720001BE000233B7200237B720023BB7200236B
:101730003B63FB6A0133FB620FE000233B71002334
:101740007B710023BB7100233B63FB6A0133FB62A7
:101750003C4B02221A7000E000BFFFF7AFFB0346CC
:10176000012B40F08180FB6A013B072B7BD801A253
:1017700052F823F095170008B3170008CB1700089C
:10178000E3170008FB170008131800082B180008BF
:1017900049180008002387F82030002387F82130FB
:1017A000002387F8223000233B63FB6A0133FB628E
:1017B0005AE000233B7700237B770023BB7700238D
:1017C0003B63FB6A0133FB624EE000233B76002360
:1017D0007B760023BB7600233B63FB6A0133FB620D
:1017E00042E000233B7500237B750023BB7500237B
:1017F0003B63FB6A0133FB6236E000233B7400234A
:101800007B740023BB7400233B63FB6A0133FB62E0
:101810002AE000233B7300237B730023BB73002368
:101820003B63FB6A0133FB621EE000233B72002333
:101830007B720023BB7200233B63FB6A0133FB62B4
:1018400012E000BFCD09002000233B7100237B7113
:101850000023BB7100233B63FB6A0133FB627F4BB8
:1018600002221A7000E000BFFFF77CFB0346012B49
:101870007DD1FB6A013B072B78D801A252F823F0F7
:10188000A1180008BF180008D7180008EF180008B2
:10189000071900081F190008371900084F19000818
:1018A000FF2387F82030002387F82130002387F8B2
:1018B000223000233B63FB6A0133FB6257E0FF23C6
:1018C0003B7700237B770023BB7700233B63FB6AD6
:1018D0000133FB624BE0FF233B7600237B76002342
:1018E000BB7600233B63FB6A0133FB623FE0FF23CF
:1018F0003B7500237B750023BB7500233B63FB6AAC
:101900000133FB6233E0FF233B7400237B7400232D
:10191000BB7400233B63FB6A0133FB6227E0FF23B8
:101920003B7300237B730023BB7300233B63FB6A81
:101930000133FB621BE0FF233B7200237B72002319
:10194000BB7200233B63FB6A0133FB620FE0FF23A2
:101950003B7100237B710023BB7100233B63FB6A57
:101960000133FB623D4B02221A7000E000BF7B6B2B
:1019700001337B637B6B312B04DC384B1B78032BEF
:101980003FF426AD07F12003002219460020FEF7A0
:10199000C7FF07F11C03002219460120FEF7C0FF14
:1019A00007F11803002219460220FEF7B9FF07F1DC
:1019B0001403002219460320FEF7B2FF07F11003BB
:1019C000002219460420FEF7ABFF07F10C030022AA
:1019D00019460520FEF7A4FF07F108030022194667
:1019E0000620FEF79DFF3B1D012219460720FEF74A
:1019F00097FF4FF400511A4800F0E0FA1948FFF73A
:101A0000FFF80023BB6217E0174ABB6A52F8233085
:101A10005B781946144ABB6A52F823301B78184683
:101A2000114ABB6A52F823309B7802460F48FFF7F1
:101A3000E7F8BB6A0133BB62BB6A072BE4DD002316
:101A40007B630123FB62FFF721FB04E00848FFF7FB
:101A5000D7F8FFF71BFB4837BD4680BDCD090020F6
:101A6000000C0240B8750008880D00207C75000845
:101A7000C475000880B582B000AF1F4B1B78002BE7
:101A800007D1FFF735F90346282B02D11A4B012263
:101A90001A70194B1B78012B29D1FFF729F903463E
:101AA000FB71FB79002B1AD0FB79292B17D0134B34
:101AB0001B681349FA79CA54104B1B68322B03D1A7
:101AC0000E4B00221A6004E00C4B1B6801330B4ADA
:101AD0001360FB79282B02D1084B00221A60FB7996
:101AE000292B04D1044B02221A70FFF747FB00BFD9
:101AF0000837BD4680BD00BFCD090020C8090020C1
:101B0000540D002080B58AB000AFFFF77DFA4FF486
:101B10008051554800F044FA4FF48051524800F08B
:101B20005BFA5248FFF76CF85148FFF769F85148E3
:101B3000FFF766F85048FFF763F800237B6202E086
:101B40007B6A01337B627B6A42F20F729342F7DD5C
:101B5000002387F82030002387F82130002387F8FE
:101B600022303B1D07F12002126811461980023312
:101B7000120C1A7007F108033A1D126811461980F9
:101B80000233120C1A7007F10C0307F108021268F5
:101B9000114619800233120C1A7007F1100307F175
:101BA0000C021268114619800233120C1A7007F1E8
:101BB000140307F110021268114619800233120C47
:101BC0001A7007F1180307F1140212681146198000
:101BD0000233120C1A7007F11C0307F11802126885
:101BE000114619800233120C1A704FF480511E48AE
:101BF00000F0F2F907F12003002219460020FEF759
:101C00008FFE07F11C03002219460120FEF788FE13
:101C100007F11803002219460220FEF781FE07F1A2
:101C20001403002219460320FEF77AFE07F1100381
:101C3000002219460420FEF773FE07F10C03002270
:101C400019460520FEF76CFE07F10803002219462D
:101C50000620FEF765FE3B1D012219460720FEF710
:101C60005FFEFFF707FFFCE7000C0240F475000879
:101C700010760008287600084476000880B489B001
:101C800000AF78600023BB6100237B610023FB6110
:101C900002233B610023FB600223BB60484B9B682F
:101CA00003F00C03BB61BB69042B07D0082B09D0E0
:101CB000002B3FD17B68434A1A603FE07B68424A71
:101CC0001A603BE03E4B5B6803F480039B0DFB60B6
:101CD0003B4B5B6803F03F03BB60FB68002B0DD000
:101CE000394ABB68B2FBF3F2354B596847F6C0730B
:101CF0000B409B0903FB02F3FB610CE0314ABB681C
:101D0000B2FBF3F22E4B596847F6C0730B409B09A8
:101D100003FB02F3FB612A4B5B6803F440331B0CAB
:101D200001335B003B61FA693B69B2FBF3F27B680C
:101D30001A6003E07B68234A1A6000BF204B9B684F
:101D400003F0F003BB61BB691B09BB611F4ABB69A0
:101D500013441B78DBB27B617B681A687B69DA40CD
:101D60007B685A60164B9B6803F4E053BB61BB6908
:101D70009B0ABB61154ABB6913441B78DBB27B61CC
:101D80007B685A687B69DA407B689A600C4B9B6879
:101D900003F46043BB61BB695B0BBB610B4ABB696E
:101DA00013441B78DBB27B617B685A687B69DA403D
:101DB0007B68DA6000BF2437BD4680BC704700BF37
:101DC000003802400024F40000127A0000000020D5
:101DD00080B483B000AF78600B46FB70FB78002BBB
:101DE00006D00949084B1A6B7B6813430B6306E066
:101DF0000549054B1A6B7B68DB4313400B6300BF3F
:101E00000C37BD4680BC70470038024080B483B0B8
:101E100000AF78600B46FB70FB78002B06D00949B9
:101E2000084B1A6C7B6813430B6406E00549054BAD
:101E30001A6C7B68DB4313400B6400BF0C37BD4654
:101E400080BC70470038024080B483B000AF786037
:101E50000B46FB70FB78002B06D00949084B5A6CE7
:101E60007B6813434B6406E00549054B5A6C7B685D
:101E7000DB4313404B6400BF0C37BD4680BC70474A
:101E80000038024080B487B000AF7860396000232A
:101E90007B6100233B610023FB6000237B6176E0D4
:101EA00001227B6902FA03F33B613B681A683B69D4
:101EB0001340FB60FA683B699A4265D17B681A68F7
:101EC0007B695B00032101FA03F3DB431A407B6863
:101ED0001A607B681A683B681B7919467B695B004E
:101EE00001FA03F31A437B681A603B681B79012BE4
:101EF00003D03B681B79022B2ED17B689A687B69E3
:101F00005B00032101FA03F3DB431A407B689A600C
:101F10007B689A683B685B7919467B695B0001FACC
:101F200003F31A437B689A607B685A687B699BB2AB
:101F3000194601238B40DB431A407B685A607B685B
:101F40005B683A68927911467A6992B201FA02F2B4
:101F500092B21A437B685A607B68DA687B699BB2ED
:101F60005B00032101FA03F3DB431A407B68DA606C
:101F70007B68DA683B68DB7919467B695B0001FAAC
:101F800003F31A437B68DA607B6901337B617B6909
:101F90000F2B85D900BF1C37BD4680BC704700BFE2
:101FA00080B483B000AF78600B467B807B687A8812
:101FB0001A8300BF0C37BD4680BC704780B483B025
:101FC00000AF78600B467B807B687A885A8300BFBD
:101FD0000C37BD4680BC704780B483B000AF7860DA
:101FE0000B467B807B685A697B885A407B685A61C4
:101FF00000BF0C37BD4680BC704700BF80B485B0C1
:1020000000AF78600B467B8013467B700023FB603B
:102010000023BB607A787B8803F007039B0002FAF9
:1020200003F3FB607B88DB089BB218467B88DB08E8
:102030009BB21A467B68083253F822207B8803F053
:1020400007039B000F2101FA03F3DB4302EA0301BC
:102050007B6800F1080243F822107B88DB089BB202
:102060001A467B68083253F82220FB681343BB6092
:102070007B88DB089BB21A467B680832B96843F854
:10208000221000BF1437BD4680BC704780B500AF3A
:10209000124A124B1B6843F0010313600F4B0022DE
:1020A0009A600E4A0D4B1B6823F0847323F480332F
:1020B00013600A4B0A4A5A60084A084B1B6823F40B
:1020C00080231360054B0022DA6000F00DF8054B09
:1020D0004FF000629A6000BF80BD00BF0038024030
:1020E0001030002400ED00E080B483B000AF002386
:1020F0007B6000233B60354A344B1B6843F48033DC
:102100001360324B1B6803F400333B607B68013380
:102110007B603B68002B03D17B68B3F5A06FF0D1E7
:102120002A4B1B6803F40033002B02D001233B60D1
:1021300001E000233B603B68012B42D1234A234B43
:102140001B6C43F080531364214A214B1B6843F4FA
:10215000804313601D4A1D4B9B6893601B4A1B4BB9
:102160009B6843F400439360184A184B9B6843F400
:10217000A0539360154B174A5A60144A134B1B68BF
:1021800043F08073136000BF104B1B6803F00073B3
:10219000002BF9D0104B40F205621A600B4A0B4B32
:1021A0009B6823F003039360084A084B9B6843F045
:1021B0000203936000BF054B9B6803F00C03082BE0
:1021C000F9D100BF0C37BD4680BC704700380240D3
:1021D0000070004008544007003C024080B485B0C5
:1021E00000AF78600A4B1B68002B02D1084B094AEC
:1021F0001A60074B1B68FB60054B1A687B68134429
:10220000034A1360FB6818461437BD4680BC70470C
:10221000D4090020C40D002080B483B000AF7860E2
:102220007B681B6823F001027B681A607B680022D0
:102230001A607B6800225A607B6800229A607B6883
:102240000022DA607B6800221A617B6821225A61D1
:102250007B68454A934203D1444B3D229A607EE01D
:102260007B68434A934204D1404B4FF474629A60B6
:1022700075E07B683F4A934204D13C4B4FF47412A3
:102280009A606CE07B683C4A934204D1374B4FF034
:1022900074629A6063E07B68384A934203D1334B9F
:1022A000374ADA605BE07B68364A934203D12F4BB2
:1022B000354ADA6053E07B68344A934203D12B4BB2
:1022C000334ADA604BE07B68324A934204D1274BB1
:1022D0004FF03D52DA6042E07B682F4A934203D1CF
:1022E0002E4B3D229A603AE07B682D4A934204D1FE
:1022F0002A4B4FF474629A6031E07B68294A93421A
:1023000004D1264B4FF474129A6028E07B68264A69
:10231000934204D1214B4FF074629A601FE07B68B6
:10232000224A934203D11D4B154ADA6017E07B68BD
:102330001F4A934203D1194B134ADA600FE07B68BE
:102340001C4A934203D1154B114ADA6007E07B68BF
:10235000194A934203D1114B4FF03D52DA6000BF4E
:102360000C37BD4680BC70471060024000600240E0
:1023700028600240406002405860024070600240A5
:102380003D00002088600240400F0020A060024015
:1023900000003D20B860024010640240006402402A
:1023A0002864024040640240586402407064024065
:1023B00088640240A0640240B864024080B485B0E2
:1023C00000AF786039600023FB607B681B68FB60AE
:1023D000FA68244B1340FB603B681A683B68DB6873
:1023E0001A433B685B691A433B689B691A433B6825
:1023F000DB691A433B681B6A1A433B685B6A1A43F2
:102400003B689B6A1A433B685B6B1A433B689B6B58
:102410001343FA681343FB607B68FA681A607B68B1
:102420005B69FB60FB6823F00703FB603B68DA6ACB
:102430003B681B6B1343FA681343FB607B68FA68C5
:102440005A613B681A697B685A603B685A687B68C6
:102450009A603B689A687B68DA6000BF1437BD46B3
:1024600080BC70473F801CF080B483B000AF7860C0
:102470000B46FB70FB78002B06D07B681B6843F093
:1024800001027B681A6005E07B681B6823F001028B
:102490007B681A6000BF0C37BD4680BC704700BF28
:1024A00080B485B000AFF860B9601346FB71BB68BB
:1024B00003F08003002B0FD0FB79002B06D0FB68C4
:1024C0005B6943F08002FB685A6105E0FB685B6969
:1024D00023F08002FB685A61BB68802B14D0FB7923
:1024E000002B08D0FB681A68BB6803F01E031A4370
:1024F000FB681A6008E0FB681A68BB6803F01E03FB
:10250000DB431A40FB681A6000BF1437BD4680BC2D
:10251000704700BF80B487B000AF78603960002397
:10252000FB750023FB600023BB607B68214A93425C
:1025300002D8214B3B6101E0204B3B613B6823F01B
:10254000F02323F0C313002B0AD03B68DB0A03F00F
:102550001E03FB607B681A68FB681340BB6004E0E5
:102560007B685B6903F08003BB603B6803F000534A
:10257000002B03D03B695B68FB6002E03B691B6892
:10258000FB60FB6823F0F02323F08213FB60FA6802
:102590003B681340002B05D0BB68002B02D0012301
:1025A000FB7501E00023FB75FB7D18461C37BD461B
:1025B00080BC70470F64024000600240006402402B
:1025C00080B485B000AF786039607B68104A934270
:1025D00002D8104BFB6001E00F4BFB603B6803F03F
:1025E0000053002B07D03B6823F0F02323F0821325
:1025F000FA68D36006E03B6823F0F02323F08213EF
:10260000FA68936000BF1437BD4680BC704700BFB6
:102610000F640240006002400064024080B485B054
:1026200000AF78600023FB730023BB730F237B7321
:102630007B68DB78002B38D0264BDB68DB4303F468
:10264000E0631B0AFB73FB7BC3F10403BB737A7B60
:10265000FB7B42FA03F37B737B685B781A46BB7B98
:1026600002FA03F3FB737B689A787B7B1340DAB240
:10267000FB7B1343FB73FB7B1B01FB73164A7B68DD
:102680001B781344FA7B83F80023134A7B681B787A
:102690005B09DBB218467B681B7803F01F0301213E
:1026A00001FA03F342F820300FE00B497B681B78F6
:1026B0005B09DBB218467B681B7803F01F0301221D
:1026C0009A4000F1200341F8232000BF1437BD4693
:1026D00080BC704700ED00E000E100E080B485B010
:1026E00000AF786039600023FB817B681B88FB8129
:1026F0007B68284A934213D07B68274A93420FD0C5
:102700007B68B3F1804F0BD07B68244A934207D09B
:102710007B68234A934203D07B68224A934208D1C4
:10272000FB8923F07003FB813B685A88FB891343C4
:10273000FB817B681C4A93420CD07B681B4A934206
:1027400008D0FB8923F44073FB813B681A89FB891D
:102750001343FB817B68FA891A803B685A687B685F
:10276000DA623B681A887B681A857B68094A93425B
:1027700003D07B68084A934204D13B689B7A9AB2A3
:102780007B681A867B6801229A8200BF1437BD4697
:1027900080BC70470000014000040140000400407C
:1027A00000080040000C00400010004000140040F1
:1027B00080B483B000AF78600B46FB70FB78002BD1
:1027C00008D07B681B889BB243F080039AB27B6879
:1027D0001A8007E07B681B889BB223F080039AB2C3
:1027E0007B681A8000BF0C37BD4680BC704700BFB5
:1027F00080B483B000AF78600B46FB70FB78002B91
:1028000008D07B681B889BB243F001039AB27B68B7
:102810001A8007E07B681B889BB223F001039AB201
:102820007B681A8000BF0C37BD4680BC704700BF74
:1028300080B485B000AF7860396000237B810023CD
:10284000FB810023BB817B681B8C9BB223F00103BF
:102850009AB27B681A847B681B8CFB817B689B889F
:10286000BB817B681B8B7B817B8923F070037B8121
:102870007B8923F003037B813B681A887B891343A0
:102880007B81FB8923F00203FB813B689A89FB89EA
:102890001343FB813B685A88FB891343FB817B68A8
:1028A0001E4A934203D07B681D4A934223D1FB8981
:1028B00023F00803FB813B68DA89FB891343FB8122
:1028C000FB8923F00403FB813B689A88FB8913434F
:1028D000FB81BB8923F48073BB81BB8923F4007324
:1028E000BB813B681A8ABB891343BB813B685A8A08
:1028F000BB891343BB817B68BA899A807B687A89DC
:102900001A833B689A687B685A637B68FA891A84E1
:1029100000BF1437BD4680BC704700BF00000140B7
:102920000004014080B485B000AF78600B467B8026
:102930000023FB817B681B8BFB81FB8923F0080351
:10294000FB81FA897B881343FB817B68FA891A83B0
:1029500000BF1437BD4680BC704700BF80B485B04F
:1029600000AF78600B467B800023FB730023BB81A4
:1029700000237B817B681B8A9AB27B881340BB81D2
:102980007B689B899AB27B8813407B81BB89002B33
:1029900005D07B89002B02D00123FB7301E00023CB
:1029A000FB73FB7B18461437BD4680BC704700BFE5
:1029B00080B483B000AF78600B467B807B88DB43BC
:1029C0009AB27B681A8200BF0C37BD4680BC704744
:1029D00080B483B000AF78600B467B8013467B7079
:1029E0007B78002B08D07B689B899AB27B88134345
:1029F0009AB27B689A8109E07B689B899AB27B884E
:102A0000DB439BB213409AB27B689A8100BF0C37BC
:102A1000BD4680BC704700BF000000000000000001
:102A200000000000000000000000000000000000A6
:102A30000000000000000000000000000000000096
:102A400090F800F06DE9024520F007016FF0000CEE
:102A500010F0070491F820F040F049804FF0000496
:102A60006FF00700D1E9002391F840F000F1080071
:102A700082FA4CF2A4FA8CF283FA4CF3A2FA8CF3A9
:102A80004BBBD1E9022382FA4CF200F10800A4FA10
:102A90008CF283FA4CF3A2FA8CF3E3B9D1E9042364
:102AA00082FA4CF200F10800A4FA8CF283FA4CF39B
:102AB000A2FA8CF37BB9D1E9062301F1200182FA55
:102AC0004CF200F10800A4FA8CF283FA4CF3A2FA5B
:102AD0008CF3002BC6D0002A04BF04301A4612BA69
:102AE000B2FA82F2FDE8024500EBD2007047D1E96C
:102AF000002304F00305C4F100004FEAC50514F0FB
:102B0000040F91F840F00CFA05F562EA05021CBFCB
:102B100063EA050362464FF00004A9E7F0B59BB0F5
:102B20000D466FF000444FF402774FF6FF7669468A
:102B300000950495ADF80C7002940594ADF80E6004
:102B400000F012F8009B00221A701BB0F0BD00BF0D
:102B500010B4044C13460A460146206810BCFFF727
:102B6000DDBF00BF380400202DE9F04FC1B00C4696
:102B7000099115460E930A9002F00EFB0368179315
:102B80001846FFF75DFFA38916901E0603D523693B
:102B9000002B01F01A8100231A46129325932493E7
:102BA00019930B93DFF864A4149230AB23939946E6
:102BB0001592A84698F800304446EBB1252B02D177
:102BC0001AE0252B03D014F8013F002BF9D1C8EBF4
:102BD00004058DB1249B259AC9F8008001332A444D
:102BE000072BC9F804502592249300F3A68009F11D
:102BF00008090B9B2B440B932378002B00F0A68035
:102C000000231A468DF86F3019460C9307934FF046
:102C1000FF3B637804F101085D4608F10108A3F168
:102C20002000582800F22584DFE810F088032304F0
:102C300023049003230423042304230423042304F0
:102C40009703A50323045D00E2002304FE000501B1
:102C50000501050105010501050105010501050144
:102C6000230423042304230423042304230423042C
:102C70002304230415018102230481022304230475
:102C800023042304C60223042304CD0223042304C3
:102C9000230423042304F702230423042503230429
:102CA00023042304230423042304230423042304EC
:102CB000230466037903810281028102810379037F
:102CC00023042304D1032304DB03A3006400EE03E5
:102CD0002304F5032304AA0323042304BC030C9850
:102CE0000E9340420C90079B43F00403079398F81F
:102CF000003092E70E98AB46002104688DF86F1003
:102D0000071D0798302378228B458DF870304FF0DF
:102D100000058DF8712040F00203C0F2C78320F057
:102D2000800343F00203079354EA05030E9700F073
:102D300093830F461192B348CEE223AA09990A98C9
:102D400003F004F948B90DF1C00952E7259B23B1FE
:102D50000A98099923AA03F0F9F8099B9B8913F0B3
:102D6000400F0B9B18BF4FF0FF33184641B0BDE832
:102D7000F08F1193AB46002A41F03382079A12F08C
:102D8000200300F02E820E9F073727F0070300274D
:102D900003F10801BB450E91D3E900458DF86F7032
:102DA000C0F2798722F08003079354EA050300F00C
:102DB000758330AEE20842EA4572E90804F0070381
:102DC0000D461446303354EA050206F8013DF1D1B0
:102DD000079AD10740F18480302B00F081803022A7
:102DE000731E06F8012C30AAD21A0D921E467AE004
:102DF00098F800302A2B08F1010401F0B981A3F101
:102E00003000092898BF002501F26C8114F8013BBD
:102E100005EB850500EB4505A3F130000928F5D940
:102E200045EAE575A046FAE6079B43F08003079361
:102E300098F80030F1E6A3F1300000231C4618F8A2
:102E4000013B04EB840400EB4404A3F130000928A7
:102E5000F5D90C94E3E61193AB46002A41F0AB811F
:102E6000079B43F010030793079B980640F13085BA
:102E70000E9F073727F00707D7E9002307F108015E
:102E80000E9114461D46002A73F10003C0F25B85C3
:102E9000BBF1000F9DF86F70C0F23885079B23F0DF
:102EA0008003079354EA050300F0DB81002D08BF7F
:102EB0000A2CC0F0DB8130AE204629460A220023CE
:102EC00004F080F9303206F8012D2046294600230F
:102ED0000A2204F077F904460D4654EA0503EBD1C3
:102EE00030AB9B1B0D930D9B5B45B8BF5B460893B6
:102EF0000023139317B1089B01330893079B13F02A
:102F000002030F9302D0089B02330893079B13F030
:102F10008403109340F0D7820C9B089A9D1A002DD1
:102F200040F3D182102D2599249A374F27DD18962A
:102F300048461024B946099E2F460A9D04E0103FDA
:102F4000102F00F1080016DD01322F4B24921031B2
:102F5000072A259180E81800F1DD23AA314628468A
:102F600002F0F4FF00287FF4F8AE103F102F2599EF
:102F7000249A30A8E8DC189E3D464F46814601322F
:102F80006C18072A25942492C9F80070C9F80450D7
:102F900000F328849DF86F7009F1080977B1249B2C
:102FA000013301340DF16F010122072B2594249385
:102FB00089E8060000F3A08309F108090F9B6BB1B3
:102FC000249B013302341CA90222072B259424934D
:102FD00089E8060000F39C8309F10809109B802B07
:102FE00000F0D5820D9BC3EB0B07002F39DD074A9C
:102FF000249B0F92102F28DD22464FF0100B0A9DC4
:10300000099C0AE094760008B4760008607600080F
:10301000103F102F09F1080916DD01331032072B7C
:103020002592249389E8000CF2DD23AA2146284644
:1030300002F08CFF00287FF490AE103F102F259AED
:10304000249B0DF1C009E8DC144601330F9A249348
:103050003C44072B259489E8840000F3418309F15F
:103060000809079BDA0500F13082249B0D99C9F805
:10307000006001330C44072B2594C9F804102493F5
:1030800000F3188309F10809079B59073FD50C9BEA
:10309000089A9D1A002D3ADD102D249BBC4F23DD8C
:1030A00022461026DDF828B0099C04E0103D102DC2
:1030B00009F1080917DD0133B54924931032072BB4
:1030C000259289E84200F1DD23AA2146584602F004
:1030D0003DFF00287FF441AE103D102D259A249B22
:1030E0000DF1C009E7DC144601332C44072B25946D
:1030F0002493C9F80070C9F8045008DD23AA09997F
:103100000A9802F023FF00287FF427AE259C0B9B32
:103110000C9A08998A42ACBF9B185B180B93002C41
:1031200040F0D482002324930DF1C00942E51193AD
:10313000AB46002A41F051800E9F073727F0070366
:1031400003F108020E921A6814925B681593159B9E
:10315000149D23F00044284621464FF0FF328D4B4A
:1031600003F0F2FF002840F0C284284621464FF0C9
:10317000FF32884B03F0CAFF002840F0B88414984F
:1031800015990022002303F0B7FF002840F04F8775
:103190009DF86F70804E814B079921F08001079157
:1031A000119903224FF0000B08924729D8BF1E4601
:1031B0000D92CDF84CB09DE6079B43F008030793B2
:1031C00098F8003029E51193AB46002A41F01180B0
:1031D000079B43F010030793079A12F020037FF434
:1031E000D2AD079911F0100200F02C850E988DF8E1
:1031F0006F30BBF1000F046800F104074FF00005C9
:10320000C0F248850A4622F08002079254EA05027D
:103210000E9700F043811F46CBE51193AB46002A81
:1032200040F0E387079B43F010030793079A12F0DF
:10323000200300F032830E9F073727F00703002793
:1032400003F10801BB450E91D3E900458DF86F707D
:10325000C0F25C8322F08003079354EA05037FF4F5
:1032600025AEBBF1000F00F0FE80002440AE3034EC
:1032700006F8414D34E61193AB46002A40F097879B
:10328000079B47489D0640F197800E9F073727F020
:103290000703D3E9004503F108020E92079A12F0E2
:1032A000010700F0418254EA050300F005859DF80E
:1032B00044208DF871200027079A8DF86F70302315
:1032C000BB458DF8703042F00203C0F2B58622F0A3
:1032D000800343F00203079330AE230904F00F018B
:1032E00043EA05732A091C461546435C06F8013D6E
:1032F00054EA0503F1D1F3E50E9911930A688DF8AC
:10330000982000230A461F468DF86F3004320123AF
:103310000893BB4613970E920D9326AEEEE51193DC
:10332000AB46002A3FF4A0AD8DF86F109CE5079BDB
:1033300043F04003079398F800306EE498F80030AB
:1033400000297FF46AAC0122202166E4079B43F048
:103350000103079398F800305FE40E9C23680C93F8
:1033600018460028234603F10403FFF6B8AC0E9379
:1033700098F8003051E498F8003001222B214CE4F9
:103380001193AB46002A3FF451AF8DF86F104DE713
:10339000B4760008FFFFEF7F7476000870760008AF
:1033A000807600081193AB46002A40F02A87079BDD
:1033B00099489D063FF569AF079BDC0640F13584CF
:1033C0000E9A1346043314680E93002566E798F8A6
:1033D00000306C2B00F0E284079840F0100007905A
:1033E0001BE4002A40F00987079B9B0640F10684F6
:1033F0000E9A0B991368CD170846043229460E928F
:10340000C3E90001FFF7D6BB079B43F020030793F6
:1034100098F8003001E40E9A1193166800248DF894
:103420006F40171D002E00F0CD85002DC0F21885CD
:103430002A462146304602F07BF9002800F02A8611
:10344000831B0D93A34623EAE3730E970893CDF8ED
:103450004CB09DF86F704DE56F481192BBF1000FB5
:1034600040F073815F464FF0000BCDF834B030AEC2
:1034700039E51193002A40F0AC86119A002A3FF4F6
:1034800065AC002301211F4608918DF898208DF826
:103490006F309B4613930D9126AE2FE5BBF1000FC5
:1034A00000F0038600270024002582E45A48079391
:1034B000119254EA05030E974FF000077FF40CAF0A
:1034C0000024002508E7259C68E5119B652B40F347
:1034D000A980149815990022002303F003FE002808
:1034E00000F03581249B4D4AC9F800200133013496
:1034F0000122072B25942493C9F8042000F3E883C4
:1035000009F108091D9B129A934203DB079BDB0715
:103510007FF5BAAD249B1699179AC9F8002001339C
:103520000C44072B2594C9F80410249300F340841D
:1035300009F10809129B5D1E002D7FF7A5AD384AE1
:10354000249B0F92102D40F3E68110260A9FDDF890
:1035500024B005E009F10809103D102D40F3DB818E
:1035600001331034072B25942493C9F800A0C9F81F
:103570000460EFDD23AA5946384602F0E7FC002834
:103580007FF4EBAB259C249B0DF1C009E4E70C9B79
:10359000089A9F1A002F7FF725AD214A249B0F928E
:1035A000102F2BDD4A462146B946102537460A9C86
:1035B000099E06E0A9F11009B9F1100F02F1080205
:1035C00018DD01331031072B25912493C2F800A098
:1035D0005560EFDD23AA3146204602F0B7FC0028F3
:1035E0007FF4BBABA9F11009B9F1100F2599249B09
:1035F00030AAE6DC3E460C464F46914601330F9A10
:1036000024933C44072B259489E8840000F34582E9
:1036100009F10809E6E400BF94760008B0760008D6
:1036200060760008129B249D012B40F3088201352F
:1036300001340123072D25942495C9F80060C9F8A9
:10364000043000F30D8209F10809169A179BC9F896
:10365000003001351444072D25942495C9F8042021
:1036600000F30E8209F1080900231498159900222D
:1036700003F038FD129B002840F0C380013B013568
:1036800001361C44072D24952594C9F80060C9F81B
:10369000043000F3F58009F10809199AC9F80420EB
:1036A000013514441FAB072D25942495C9F800302B
:1036B0007FF7E8AC23AA09990A9802F047FC002892
:1036C0007FF44BAB259C0DF1C009DDE423AA0999D9
:1036D0000A9802F03BFC00283FF424ADFFF73DBB05
:1036E00023AA09990A9802F031FC00287FF435AB2F
:1036F000259C0DF1C009B4E423AA09990A9802F0A7
:1037000025FC00287FF429AB259C0DF1C00955E468
:1037100023AA09990A9802F019FC00287FF41DAB2E
:10372000259C0DF1C00959E4BBF1000F8DF86F70B5
:10373000C0F2DA8222F08003079354EA05037FF493
:10374000CBADBBF1000F3FF48DAE0027B8E61D9D59
:10375000002D40F3CC82139B129A9342A8BF1346CC
:10376000002B1D460DDD249BC9F8006001332C445D
:10377000072B2594C9F80450249300F3A38309F17F
:103780000809139B002DA8BF5B1B002B1D4640F3AF
:10379000F680BA4A249B0F92102D40F38082224675
:1037A0001027DDF828B0099C05E009F10809103D53
:1037B000102D40F3738201331032072B259224938E
:1037C000C9F800A0C9F80470EFDD23AA21465846C5
:1037D00002F0BCFB00287FF4C0AA259A249B0DF1BF
:1037E000C009E4E723AA09990A9802F0AFFB002870
:1037F0007FF4B3AA9DF86F70259C0DF1C009FFF707
:10380000CDBB5E1E002E7FF748AF9C4B0F93102E52
:103810002CDDCDF834801027B046DDF828B0099EA5
:1038200006E0A8F11008B8F1100F09F108091ADD37
:1038300001351034072D25942495C9F800A0C9F846
:103840000470EEDD23AA3146584602F07FFB0028C3
:103850007FF483AAA8F11008B8F1100F259C249DCD
:103860000DF1C009E4DC4646DDF834800F9B0135DC
:103870003444072D2594249589E848007FF70BAF41
:1038800023AA09990A9802F061FB00287FF465AA2F
:10389000259C249D0DF1C009FFE6079911F0100247
:1038A00000F008810E988DF86F30BBF1000F0468AE
:1038B00000F104074FF0000526DB0A4622F08002E3
:1038C000079254EA05020E971F467FF4EFAAC8E458
:1038D000079BD9062AD4079B5A0627D50E99B1F91A
:1038E00000400431E51722462B460E91FFF7CBBA74
:1038F0000E998DF86F30BBF1000F0C6801F10407D1
:103900004FF0000580F245820E971F4654EA0503EA
:103910007FF4CCAAAAE401330F9A24932C44072BFA
:10392000259489E824007FF7ADABC3E60E9A1468AE
:1039300013460433E51722460E93002A2B4673F1F3
:103940000003BFF6A5AA64424FF02D0765EB4505BD
:10395000BBF1000F8DF86F70FFF6A8AA079B23F04C
:1039600080030793FFF7A2BA23AA09990A9802F0E5
:10397000EDFA00287FF4F1A9259C0DF1C009139AF6
:103980001D9B32441746129A934247DB079AD5078C
:1039900044D412990E44F51BCB1A9D42A8BF1D4674
:1039A000002D2E460DDD249AC9F8007001322C44FA
:1039B000072A2594C9F80450249200F3128309F1D0
:1039C0000809002EACBF9D1B1D46002D7FF75CAB88
:1039D0002A4A249B0F92102D9DDD10260A9FDDF8A8
:1039E00024B004E009F10809103D102D93DD0133E6
:1039F0001034072B25942493C9F800A0C9F804605B
:103A0000F0DD23AA5946384602F0A0FA00287FF4D8
:103A1000A4A9259C249B0DF1C009E5E7249A1698DA
:103A20001799C9F8001001320444072A2594C9F8EF
:103A30000400249200F3A58209F10809A9E7079B75
:103A4000D8073FF5F4AD013501340123072D259446
:103A50002495C9F80060C9F804307FF71CAE0FE761
:103A600023AA09990A9802F071FA00287FF475A92F
:103A7000259C249D0DF1C009E7E500BF6076000894
:103A800023AA09990A9802F061FA00287FF465A92F
:103A9000259C249D0DF1C009E6E523AA09990A9801
:103AA00002F054FA00287FF458A9259C0DF1C009B2
:103AB000FFF798BA079911F040033FF419AF0E9839
:103AC0008DF86F200346BBF1000F03F10403048857
:103AD0004FF00005C0F2B98121F08001079154EA4E
:103AE00005010E9317467FF4E1A9FFF7BABB149CBA
:103AF00022462046159C2346214603F025FB00283C
:103B000040F01583119BBBF1FF3F23F020030D9381
:103B100000F07682472B00F09281079B43F480737C
:103B20001093159B1F1E149B0893BBBF3B4603F1CC
:103B3000004700232D230F93119B662B00F0638217
:103B4000462B00F05E810D9B089A452B21A81EA9EB
:103B50000CBF0BF101055D46049003911DA80221E5
:103B60003B460290019500910A9800F0E9FB119BF9
:103B7000672B064640F07D82079BDA0740F1BF8243
:103B80007419089839460022002303F0ABFA002884
:103B900040F0A481219B9C4206D930215A1C2192DD
:103BA0001970219B9C42F9D89B1B12930D9B472BAC
:103BB00000F08181119B652B40F36A82119B662B7B
:103BC0001D9B139300F04782139A12998A42C0F208
:103BD0003682079BD90700F1898222EAE2730D92AF
:103BE000672211920F9A002A40F05B810893109B84
:103BF000079393469DF86F70FFF77CB9079BDF062C
:103C00000BD4079B5E0608D50E9A136804320E92F9
:103C1000BDF82C201A80FEF7CDBF0E9A136804322F
:103C20000E920B9A1A60FEF7C5BF079B0E9A13F00F
:103C3000400F134600F00E81043314880E930025C4
:103C4000FFF72CBB079911F0400317D00E988DF8A1
:103C50006F200346BBF1000F03F1040304884FF00B
:103C60000005C0F2F58021F08001079154EA0501BA
:103C70000E933FF413AC1746FFF79BB80E998DF8DF
:103C80006F30BBF1000F0C6801F104074FF0000525
:103C900080F281800E970027FFF78BB8144601331E
:103CA0000F9A24932C44072B259489E824003FF78E
:103CB0005BAE09F1080962E60027BB458DF86F701D
:103CC000FFF6FEAB079B23F080030793FFF7C6BB0D
:103CD00023AA09990A9802F039F900287FF43DA82F
:103CE000259C0DF1C0090DE40E9FFFF7E2BB249B5C
:103CF000B14AC9F80020013301340122072B259471
:103D00002493C9F804206FDC09F108092DB9129B2E
:103D10001BB9079BDF077FF5B7A9249B1699179A54
:103D2000C9F8002001330C44072B2594C9F804106E
:103D3000249300F3C98109F108096D42002D40F375
:103D4000A3809E4A0F92102D40F32981224610270E
:103D5000DDF828B0099C05E009F10809103D102D97
:103D600040F31C8101331032072B25922493C9F8AC
:103D700000A0C9F80470EFDD23AA2146584602F0DE
:103D8000E5F800287EF4E9AF259A249B0DF1C009DF
:103D9000E4E7079A92E5079AFFF735BA079B43F0E5
:103DA0002003079308F1010898F80030FEF735BFAB
:103DB00023AA09990A9802F0C9F800287EF4CDAF29
:103DC000259C0DF1C009FFF7B5BB40210A9801F011
:103DD000F1F9099A10601061002800F0F381099A46
:103DE00040235361FEF7D7BE23AA09990A9802F02F
:103DF000ADF800287EF4B1AF1D9D259C0DF1C009E2
:103E000084E721A81EA9049003911DA80321029014
:103E1000089ACDF804B03B4600910A9800F090FA59
:103E20005D460646119B462B06EB05047FF4A9AEC2
:103E30003378302B00F06D811D9D2C44A1E6BBF141
:103E4000000F08BF4FF0010B67E60E9317465DE5C4
:103E50000E9320E7043314680E930025FFF71EBA73
:103E60003046FEF7EDFDA34603460D90FFF7EBBA93
:103E700023AA09990A9802F069F800287EF46DAF28
:103E8000259C249B0DF1C0091299C9F800600133EB
:103E90000C44072B25942493C9F804107FF7F2A84B
:103EA00008E42D270893109B07938DF86F704FF04F
:103EB000000BFFF720B81D9BDD1C11DB9B450FDBC2
:103EC000139381E623AA09990A9802F03FF8002883
:103ED0007EF443AF259C0DF1C00952E4234663E60E
:103EE000119A023A1192013B002B9DF844201D9338
:103EF000B8BF5B428DF87C20B4BF2D222B22092B4A
:103F00008DF87D2040F3FD800DF18B0004462C4A96
:103F100082FB0321DA17C2EBA10202EB8201A3EBC1
:103F2000410303F13001092A134604F8011DEEDCB8
:103F300021463033DAB201F8012D884240F23F8148
:103F40000DF17E01234601E013F8012B01F8012B4E
:103F50009842F9D1431C1B1B0DF17E0213441FAA8A
:103F60009B1A129A1993012A13440D9340F3F68079
:103F70000D9B169A134400220D93139223EAE373C8
:103F800030E623AA09990A9801F0E0FF00287EF4A0
:103F9000E4AE1D9B259C0DF1C009FAE414460133E3
:103FA0000F9A24932C44072B259489E824003FF78B
:103FB0005FAF09F1080967E7B0760008607600088E
:103FC00067666666062D2B4628BF06230D9323EAF7
:103FD000E373B3460E971396374608938B4EFEF75E
:103FE00089BF23AA09990A9801F0B0FF00287EF43E
:103FF000B4AE1D9B129A259CD31A0DF1C009E0E4C2
:104000004FF0060B89E521A81EA9049003911DA875
:1040100003210290089ACDF804B03B4600910A981B
:1040200000F08EF95D46064600EB0B0400E72D27F5
:104030008DF86F70FFF7AEB80793FFF74DB9169A7A
:10404000129B1344139A0D93002A7FDD672223EA03
:10405000E3731192C6E5002B40F39880BBF1000F8B
:104060006BD1079AD40768D41A460D9223EAE373FA
:10407000B8E5119B472B7FF483AD079BDB073FF52A
:10408000D1AE219B9B1B12930D9B472B3FF413AF8B
:104090001D9B28E725EAE5730E9708930D95834647
:1040A00013909DF86F70FEF725BF079BDB075F46F7
:1040B00005D540AE302306F8413DFEF711BFCDF8DF
:1040C00034B030AEFEF70FBF23AA09990A9801F069
:1040D0003DFF00287EF441AE1D9D259C249B0DF1E3
:1040E000C0092AE6A0460025FEF799BD169A139B43
:1040F000134467220D93119223EAE37372E5219B27
:1041000052E5303330228DF87F308DF87E2020ABA1
:1041100025E7089839460022002302F0E3FF002833
:104120007FF48AAEC5F101051D952C4429E5384E72
:10413000384B9DF86F70FFF72FB8139B169A9D1898
:1041400005EB0B030D9323EAE3734BE5139B0D9AE9
:10415000C3F101031A4413460D9277E7079B13F04E
:1041600001037FF405AF13930D9B23EAE37339E555
:104170000E9898F8013005680430002D0E90A04686
:10418000BEF64BAD4FF0FF35FEF747BDBBF1000F5C
:1041900002D1079BD80707D5169B5D1C05EB0B03C7
:1041A0000D9323EAE3731DE501230D931AE58DF8C2
:1041B0006F10FFF765B88DF86F10FEF751BE0DF167
:1041C0007E03CCE60A9A0C2313604FF0FF30FEF713
:1041D000CDBD8DF86F10FFF750B98DF86F10FEF759
:1041E000ABBF8DF86F10FEF7C9BD8DF86F10FFF7EC
:1041F00019B88DF86F10FEF7EBBF8DF86F10FFF751
:10420000F3B88DF86F10FFF7D2B800BFA87600089A
:104210007C7600087876000802690B69934200F307
:104220008D802DE9F04F03F1FF3801F1140700F103
:10423000140B57F828205BF828304FEA880483B025
:104240000132B3FBF2F90BEB0403009407EB040A11
:104250000193B9F1000F39D00025BC46DE462B464C
:104260005CF8046BDEF80020B4B209FB0455360C90
:104270002C0C09FB0644ADB25B1BA6B213FA82F309
:10428000C6EB124606EB23469BB243EA0643E245E1
:104290004EF8043B4FEA14454FEA2643E0D2009B18
:1042A0005BF8033093B9019C231F9B450CD254F853
:1042B000043C4BB9A4F1080302E01A68043B1AB9A4
:1042C0009B4508F1FF38F8D3C0F81080044601F090
:1042D00025FD00282EDB09F101095D46002357F872
:1042E000041B28688AB29A1A090C12FA80F2C1EBF0
:1042F000104303EB224391B241EA0341BA4545F82A
:10430000041B4FEA2343EAD25BF828200BEB880317
:1043100082B91A1F93450BD253F8042C42B9083BBB
:1043200002E01A68043B1AB99B4508F1FF38F8D33C
:10433000C4F81080484603B0BDE8F08F00207047F5
:104340002DE9F04F016C97B08146239C92469B4625
:1043500049B1426C4A60012393408B6001F0FCFA42
:104360000023C9F84030BBF1000FD84633DB0023EF
:104370002360A54B1A4608EA0303934214D0504623
:1043800059460022002302F0ADFE054648B3229AAA
:1043900001231360249B002B00F0C5809B4818600C
:1043A000013817B0BDE8F08F229A42F20F73136004
:1043B000BAF1000F00F0A2809548249B002BF0D0AA
:1043C000C378002B00F0B18000F10803249A136039
:1043D00017B0BDE8F08F01232BF000482360C346DF
:1043E000C7E714AA15AB0192009352465B464846B4
:1043F00001F03EFD5FEA1854089040F08880149D5B
:10440000159C2C4404F23243202B40F39182C3F1DB
:10441000400304F2124008FA03F82AFA00F040EAD6
:10442000080002F081FB0123013CA1F1F871109317
:104430000022784B02F03AFA6DA3D3E9002302F090
:10444000E9FB6DA3D3E9002302F032FA06462046C9
:104450000F4602F079FB6AA3D3E9002302F0DAFBEE
:1044600002460B463046394602F022FA06460F460F
:1044700002F080FE0022049000233046394602F00C
:104480003BFE002840F03082049E162E00F2298266
:10449000614B03EBC603D3E9000152465B4602F0D1
:1044A00049FE002800F04982731E049300230C93F8
:1044B0002C1B631E029300F1328200230593049BA0
:1044C000002BC0F22382029A0B9311461944002359
:1044D00002910A93209B092B29D8052B40F358867B
:1044E000043B20930025209B023B032B00F23586E2
:1044F000DFE813F02C03280237035904444B474AE2
:10450000C8F31300002814BF1846104655E7CBF334
:10451000130343F07F5110955046A4F2FF3441F449
:104520004011149D84E73E483BE7C31C4EE7002141
:10453000C9F844104846209101F0E8F94FF0FF33E4
:104540000693209A0D93012307902192C9F8400009
:104550000993159B002BC0F2D180049A0E2A00F318
:10456000CD802D4B03EBC203D3E90034CDE90234F7
:10457000219B002BC0F2008356465F4650465946A9
:10458000DDE902AB52465B4602F06EFC02F0F2FD42
:10459000044602F0D9FA52465B4602F03BFB0B465A
:1045A00002463946304602F081F9079D04F1300396
:1045B0002B70069B012B06460F4605F1010562D0C4
:1045C0000022184B02F026FB0022002306460F466D
:1045D00002F088FD00287ED1CDF81490DDF818A0F7
:1045E000DDF81CB0DDE9028929E000BFAFF30080EF
:1045F00061436F63A787D23FB3C8608B288AC63FE9
:10460000FB799F501344D33F0000F07FB176000840
:10461000D07600080000F83FD8760008C47600087D
:10462000B07600080000244002F0F4FA00220023D3
:1046300006460F4602F056FD002840F0B78342467A
:104640004B463046394602F00FFC02F093FD04461B
:1046500002F07AFA42464B4602F0DCFA02460B467A
:104660003046394602F022F904F1300E05F801EB2C
:10467000CBEB050ED64506460F464FF00002B04B79
:10468000D2D1DDF8149032463B463046394602F02E
:104690000FF906460F4602460B46DDE9020102F01D
:1046A0002BFD40B932463B46DDE9020102F01AFD1E
:1046B00088B1E3070FD515F8014C079A6B1E04E08B
:1046C0009A4200F02C8413F8014D392C03F10105B6
:1046D000F6D001341C700899484601F03DF90022DB
:1046E000049B2A70229A01331360249B002B00F054
:1046F000A78307981D6017B0BDE8F08F099A002ABC
:1047000000F01281209A012A40F35882069B0A9AEF
:104710005F1EBA42C0F29783D71B069B002BC0F2E4
:104720008A84059D069B059A1A440592029A0121E6
:104730001A444846029201F0A7F9064665B102996B
:1047400000290B4608DDA942059AA8BF2B46D21ABC
:10475000ED1ACB1A059202930A9B002B40F3FC82C0
:10476000099A002A00F00182002F00F0FE813146F4
:104770003A46484601F02AFADDF8208001464246D2
:104780000646484601F08AF941460446484601F08B
:10479000E3F80A9BDB1B0A9340F0E68101214846BF
:1047A00001F072F90B9B8046002B00F01982014644
:1047B0001A46484601F00AFA209B012B804640F336
:1047C000F8820027D8F8103008EB8303186901F04D
:1047D0000DF9C0F12000029A104410F01F0000F003
:1047E000F681C0F12003042B40F3CA84059BC0F17D
:1047F0001C00034405931346034405440293059BA0
:10480000002B05DD21461A46484601F02FFA0446E2
:10481000029B002B05DD41461A46484601F026FA68
:1048200080460C9B002B40F07C82069B002B40F3C3
:104830009582099B002B40F0F581DDF81CB0069FA6
:104840005D4602E001F092F8044641462046FFF73B
:10485000E3FC00F1300A05F801ABCBEB0503BB42EA
:104860004FF00A024FF0000321464846EADB079B5F
:10487000069A012AACBF9B1801331D464FF0000B6E
:1048800021460122484601F0F1F94146089001F025
:1048900045FA002840F30D8315F8012C07996B1E8B
:1048A00004E08B4200F0788213F8012D392A03F1DD
:1048B0000105F6D001321A704146484601F04CF825
:1048C000002E3FF408AFBBF1000F05D0B34503D075
:1048D0005946484601F040F83146484601F03CF858
:1048E000F9E601230C93E3E5DDF81080404602F081
:1048F0002BF902460B463046394602F0F3FB0028FE
:104900007FF4C2AD08F1FF330493BDE5059A049B23
:10491000D21A5B420A93002305920B93DAE55B42BD
:10492000059300230293CAE50A9F059D099E05E7AA
:10493000C3F120080AFA08F073E50C90B8E500BF4F
:104940000000244000230993049B219A13440D93F3
:104950000133002B069340F38382069C26460021F8
:10496000172EC9F844100BD9012204235B0003F170
:104970001400B042114602F10102F7D9C9F84410FF
:10498000484600F0C3FF0E2C0790C9F840003FF6E0
:10499000E0AD002D3FF4DDAD04995746D84600291F
:1049A000CDE90E7840F39282914B01F00F020E1187
:1049B00003EBC203F006D3E9004540F14C828D4B76
:1049C00050465946D3E9082302F04EFA06F00F0686
:1049D00082468B464FF0030886B1864FF10709D512
:1049E00020462946D7E9002302F014F908F101080E
:1049F00004460D46761007F10807EFD122462B46F4
:104A00005046594602F030FA06460F460C9B43B119
:104A10000022794B3046394602F06EFB002840F008
:104A20002083404602F090F832463B4602F0F2F80E
:104A3000724B002201F03CFF069B0446A1F1507529
:104A4000002B00F0DF81049BDDF818801193099B97
:104A5000002B00F09782664B694903EBC80353E9CA
:104A60000223002002F000FA22462B4601F01EFF2E
:104A700082468B463046394602F07CFB044602F003
:104A800063F802460B463046394601F00FFF3034DA
:104A9000079DE4B206460F462C7002460B46504670
:104AA0005946013502F046FB00284CD132463B46C0
:104AB0000020514901F0FAFE02460B465046594685
:104AC00002F038FB002840F00D83B8F1010F40F3ED
:104AD000B381079B98440DE00020474901F0E6FEB2
:104AE00052465B4602F008FB002840F0FB82454539
:104AF00000F0A281504659460022424B02F08AF84B
:104B00000022404B82468B463046394602F082F8FE
:104B10000F46064602F02EFB044602F015F8024648
:104B20000B463046394601F0C1FE3034E4B25246FD
:104B30005B4605F8014B06460F4602F0DDFA3246A9
:104B40003B460028C8D0119B0493C4E50023099379
:104B5000219B002B40F389811E461C460D93069332
:104B6000FDE601230993F3E708940A9A0899484659
:104B700001F02CF8044611E6069B002B3FF7FCAC35
:104B800040F0DA820022204BDDE9020102F042F817
:104B900052465B4602F0C4FADDF81880464600280B
:104BA00000F0F280219B079DDB4304934146484679
:104BB00000F0D2FE002E3FF48EAD8DE6109A002A52
:104BC00000F0418203F233430A9F059DABE51C20B0
:104BD000059B03440593029B0344054402930EE6A0
:104BE000209B012B40F382820B9F0120F3E500BF45
:104BF000D8760008B07700080000F03F00001C40A5
:104C00000000E03F00002440000014403146002333
:104C10000A22484600F0AAFE0D9B002B064640F3F0
:104C200097820693002D05DD31462A46484601F05D
:104C30001DF80646002F40F07C810596069B079ADA
:104C4000DDF814B0013BD31808930AF0010309936F
:104C50001746C24651462046FFF7DEFA3146054662
:104C6000204601F05BF85A4602905146484601F052
:104C700075F8C268804605F13003002A49D1014623
:104C80002046069301F04AF841460590484600F058
:104C900063FE059A069B2AB9209919B9099900293A
:104CA00000F0368202990029C0F2E48005D12099F3
:104CB00019B90999002900F0DD80002A00F34D811F
:104CC000089A3B7007F101089742454600F054816D
:104CD000214600230A22484600F048FE5E4504466D
:104CE00031464FF000034FF00A0248460BD000F067
:104CF0003DFE5946064600230A22484600F036FE8D
:104D000047468346A6E700F031FE474606468346FF
:104D1000A0E701464846059300F01EFE0122059BD0
:104D2000C0E74146204600F0F9FF0028BFF67DAD00
:104D30002146049C0023013C0A224846049400F0CA
:104D400015FE099B0446002B7FF460AF0D9B002BE2
:104D500040F3F681069370E5089C1FE5209B022B2B
:104D60007FF767AD069B002B40F079814146052215
:104D7000484600F0FBFD01468046204600F0CEFF8D
:104D8000002808947FF70EAF049A07993123013267
:104D900004920B704D1C09E7049A01320492079AA1
:104DA0003123137088E501230993CDE5DDF81490D4
:104DB00091E4BAF1000F7FF404ADCBF31303002BA1
:104DC00040F03F812BF000473F0D3F0537B1059B79
:104DD00001330593029B0133029301270B9B0120B2
:104DE000002B3FF4F8ACEDE4404601F0ADFE324656
:104DF0003B4601F00FFF0022BF4B01F059FD044676
:104E0000A1F15075304639460022BC4B01F04EFDF1
:104E100022462B4606460F4602F08CF980460028B3
:104E200040F00581224605F100433046394602F044
:104E300063F908B14646B5E6DDE90EABFFF789BB7D
:104E40000798FFF7AEBA0A9B0B9A0A97FB1A1A4407
:104E50000B92002761E4DDE90EAB4FF00208BBE5E1
:104E60001C460021C9F844108AE5012421940D94C0
:104E70000694F6E7002AD046CDF814B09A4611DD24
:104E800021460122484600F0F1FE4146044600F06A
:104E900045FF002840F34981BAF1390F00F006813F
:104EA00005F1310AB34687F800A07D1C059E0894E1
:104EB00002E504D11AF0010F01D0EDE4154615F812
:104EC000013C302B05F1FF32F8D0F5E4049B5C4245
:104ED000002C00F0BF808A4B04F00F0203EBC203EA
:104EE000D3E90023DDE90E0101F094FE241106460A
:104EF0000F4600F02A81834D4FF00208E20709D5E2
:104F000030463946D5E9002301F084FE08F1010856
:104F100006460F46641005F10805EFD176E50799BE
:104F200030220A70049A15F8014C01320492FFF7FE
:104F3000D0BB7168484600F0E9FC33699A1C05460D
:104F4000920006F10C010C3000F042FC29460122CF
:104F5000484600F08BFE059070E6392BCDF814B072
:104F6000D04600F0A38003F1010AB34687F800A001
:104F70007D1C059E08949FE45A46D046B3469A4647
:104F800016467DE45E4908F1FF3A01EBCA0122466C
:104F90002B46D1E9000101F03DFECDE91201394671
:104FA000304602F0E7F8044601F0CEFD02460B461B
:104FB0003046394601F07AFC079A3034B8F1010FD7
:104FC00006460F46147002F101051ED0079B03EB45
:104FD000080BA84600224C4B3046394601F01AFE19
:104FE0000F46064602F0C6F8044601F0ADFD303427
:104FF00002460B463046394601F058FC08F8014B92
:10500000C34506460F46E5D1554400223F4BDDE936
:10501000120101F04DFC32463B4602F06DF80028CB
:105020004CD0119B049315F8014CFFF746BB4FF091
:1050300000084646A8E6059B069A9D1A0023FFF73E
:1050400072BB0027CAE6149B0A9F059DC3F1360375
:10505000FFF769BBDDE90E674FF00208D6E408945C
:10506000A0E5069B002B3FF4BFAE0D9B002B7FF706
:10507000E3AE0022244B3046394601F0CBFD064614
:105080000F4608F1010001F05FFD32463B4601F09A
:10509000C1FD0022184B01F00BFC049ADDF83480AE
:1050A000013A0446A1F150751192D0E43922B34679
:1050B0000894059E3A707D1CFFF7F0BBDDE91223D2
:1050C0000020124901F0F2FB32463B4602F032F872
:1050D00008B9B1E6154615F8013C302B05F1FF3251
:1050E000F8D030E5119B0493FFF7E7BABAF1000F4F
:1050F0007FF47AAD61E600BF00001C400000144060
:10510000D8760008B0770008000024400000E03F97
:10511000392BCDF814B0D046DDF808B09A46C5D08A
:10512000BBF1000F3FF7BCAEBCE67FF4BBAE1AF09C
:10513000010F3FF4B7AEAFE64FF00008464631E549
:10514000209B022B21DC0D9B04E64FF002085DE45E
:10515000209B022B19DC0D9B63E50024C9F8444019
:105160002146484600F0D2FB4FF0FF3306930D93E3
:10517000012307902194C9F840000993FFF7E9B98A
:105180003FF43DABC0F13C0022E50D9B0693E9E501
:105190000125FFF7A8B900BF044A054B1268506B00
:1051A000002808BF1846F030704700BF38040020C0
:1051B0004C0800202DE9F04F01F10B05162D83B0AE
:1051C000064640F29F8035F0070500F1BF80A942F6
:1051D00000F2BC8000F096FBB5F5FC7FC0F09C822D
:1051E0006B0A00F0BA80042B00F28381A80900F159
:1051F000390E4FEA4E033830C44F07EB8303A3F157
:1052000008015C68A14207D1ACE0002A80F2AC80C2
:10521000E468A14200F0A680636823F003035A1BF0
:105220000F2AF2DDB9493C6901F1080E744500F01E
:10523000B381636823F003035A1B0F2A00F399819B
:10524000002AC1F814E0C1F810E080F29E80B3F5A6
:10525000007F80F06781DB0803F1010C01229B10C5
:1052600002FA03F34A6851F83C80C4F8088001EB65
:10527000CC091A43A9F10803E3604A6041F83C40B5
:10528000C8F80C40831001249C40944200F28A80AC
:10529000144206D120F003006400144200F104001F
:1052A000FAD007EBC009CC468046DCF80C108C45E0
:1052B00007D173E1002A80F28181C9688C4500F032
:1052C0006D814B6823F003035A1B0F2AF2DD0C4655
:1052D000D1F80CC054F8088F4B1945F001054D600A
:1052E00042F00101C8F80CC03046CCF808807B6160
:1052F0003B61C3F80CE0C3F808E059609A5000F035
:1053000003FB1FE0102921D800F0FCFA102506232A
:1053100002207E4F07EB8303A3F108025C689442EE
:1053200000F045816368E168A56823F00303234426
:1053300030465A68E96042F001028D605A6000F020
:10534000E3FA0834204603B0BDE8F08F00240C23B4
:105350002046336003B0BDE8F08F80234FF0400E4D
:105360003F2049E770465DE72344E1685A68A56835
:1053700042F00102E96030468D605A6000F0C4FAE4
:105380000834204603B0BDE8F08F234430465A6805
:1053900042F001025A6000F0B7FA0834204603B028
:1053A000BDE8F08FBC68636823F00308A84504D308
:1053B000C5EB08030F2B00F38C80554BDFF8609191
:1053C0001A68D9F8003001332A4404EB080A00F0C7
:1053D000608102F580520F3222F47F6222F00F02C8
:1053E00011463046019200F09FFDB0F1FF3F834629
:1053F000019A00F05881824500F2FC80454B196803
:10540000DA451144196000F05381D9F80000DFF843
:1054100010E101301BBFCAEB0B0A5144CEF800B0BB
:1054200019601BF0070100F01781C1F10800C1F5F8
:105430008051834408315A44C2F30B02C2EB010984
:1054400049463046019300F06FFD431C019B00F07C
:105450003F81CBEB00024A4442F001021968C7F8D1
:1054600008B04944BC42CBF804201960DFF8A4908E
:1054700016D0B8F10F0F40F2FD806268A8F10C035E
:1054800023F00703E01802F001024FF0050E1A4363
:105490000F2B6260C0F804E0C0F808E000F21C8145
:1054A0001D4BBC681A68914288BF19601B4B1A6873
:1054B0009142626888BF196022F003029542A2EB14
:1054C000050301D80F2B04DC304600F01DFA002440
:1054D00038E7621943F0010345F001056560304685
:1054E000BA60536000F010FA0834204603B0BDE8FB
:1054F000F08F142B71D9542B00F2A480280B00F1EB
:105500006F0E4FEA4E036E3076E600BF3C0400207B
:10551000E0090020E4090020DC090020D80900206F
:10552000480800205A0A042A5ED9142A00F2B380DF
:1055300002F15C0149005B3207EB810C57F8211046
:10554000DFF8DC81ACF1080C8C4500F088804A68FB
:1055500022F00302934202D289688C45F7D1D1F838
:105560000CC07A68C4F80CC0A160CCF80840CC60CC
:1055700088E6631942F0010745F001056560304691
:105580004B610B61C3F80CE0C3F808E05F609A5010
:10559000083400F0B9F9D5E64A6873E608F1010865
:1055A00018F0030F0CF1080C7FF47FAE30E0DC68DC
:1055B000A34208BF02303FF435AEB3E60B440C46BD
:1055C0005A68C96854F8085F42F001025A603046D0
:1055D000E9608D6000F098F9B4E603F15C0E03F128
:1055E0005B004FEA4E0307E69A0902F139014900D0
:1055F0003832A1E7BC424A4B3FF400AF9C68626876
:1056000022F003025AE759F80839994540F08280A0
:1056100010F0030F00F1FF30F5D17B6823EA04039B
:105620007B6064009C423FF6BDAE002C3FF4BAAEF6
:105630001C4240467FF435AE64001C4200F1040079
:10564000FAD02EE6B3F5AA7F18D8E80B00F1780E51
:105650004FEA4E037730CFE54FF48051EBE601215E
:10566000D8F80430921001FA02F21A43C8F8042064
:10567000614677E70123CBF8043025E740F2545226
:10568000934220D8A80C00F17D0E4FEA4E037C30E7
:10569000B2E51032A4E6542A26D81A0B02F16F01A3
:1056A00049006E3248E7BC68626822F0030205E7F1
:1056B000CAF30B0000287FF4A8AE4244BB6842F056
:1056C00001025A60ECE6FE234FF07F0E7E2093E548
:1056D00001224FF00009C1E604F10801304600F054
:1056E00033FDD9F80010DBE6B2F5AA7F05D8DA0B56
:1056F00002F17801490077321EE740F254518A42A4
:1057000005D89A0C02F17D0149007C3214E7FE2194
:105710007E2211E77B6884E7E808431C5B00F8E51C
:105720003C04002000000000000000000000000019
:1057300001F0FF01102A2BDB10F0070F08D010F842
:10574000013B013A8B422DD010F0070F42B3F6D146
:10575000F0B441EA012141EA014122F007047FF05F
:1057600000070023F0E80256083C85EA010586EAB6
:10577000010685FA47F5A3FA87F586FA47F6A5FAF2
:1057800087F68EB9EED1F0BC01F0FF0102F00702FE
:1057900032B110F8013B013A83EA010313B1F8D1A9
:1057A0000020704701387047002D06BF354603388A
:1057B000073815F0010F07D1013015F4807F02BFC3
:1057C000013015F4C03F0130F0BC0138704700BF14
:1057D000844641EA000313F003036DD1403A41D3FC
:1057E00051F8043B40F8043B51F8043B40F8043BBB
:1057F00051F8043B40F8043B51F8043B40F8043BAB
:1058000051F8043B40F8043B51F8043B40F8043B9A
:1058100051F8043B40F8043B51F8043B40F8043B8A
:1058200051F8043B40F8043B51F8043B40F8043B7A
:1058300051F8043B40F8043B51F8043B40F8043B6A
:1058400051F8043B40F8043B51F8043B40F8043B5A
:1058500051F8043B40F8043B51F8043B40F8043B4A
:10586000403ABDD2303211D351F8043B40F8043BEA
:1058700051F8043B40F8043B51F8043B40F8043B2A
:1058800051F8043B40F8043B103AEDD20C3205D3FA
:1058900051F8043B40F8043B043AF9D2043208D0F2
:1058A000D2071CBF11F8013B00F8013B01D30B8864
:1058B00003806046704700BF082A13D38B078DD042
:1058C00010F003038AD0C3F10403D21ADB071CBF14
:1058D00011F8013B00F8013B80D331F8023B20F87E
:1058E000023B7BE7043AD9D3013A11F8013B00F8B7
:1058F000013BF9D20B7803704B7843708B7883703F
:1059000060467047704700BF704700BFC36C70B5FA
:1059100005460C464BB153F8240080B1026843F8A9
:10592000242000230361C36070BD2122042100F004
:105930008DFBE86403460028EDD1002070BD0121F5
:1059400001FA04F6721D2846920000F07FFB002841
:10595000F3D044608660E4E731B1C36C4A6853F821
:105960002200086043F82210704700BFF0B50C69B0
:1059700083B00D46064601F1140E0027DEF8000044
:1059800081B202FB01310B0C000C02FB003389B227
:10599000013701EB0341BC424EF8041B4FEA1343AD
:1059A000ECDC3BB1AA68944207DA05EB84020134CF
:1059B00053612C61284603B0F0BD69680193013141
:1059C0003046FFF7A3FF2A69023205F10C010746B2
:1059D00092000C30FFF7FCFEF26C6968019B52F8F4
:1059E0002100286042F821503D46DEE7030C1B04ED
:1059F000B3B90004102310F07F4F04BF0002083336
:105A000010F0704F04BF0001043310F0404F04BF8A
:105A100080000233002807DB420003D420207047B7
:105A20000023E8E7581C704718467047036813F0D6
:105A3000070207D0D90720D49A0720D49B08036017
:105A40000220704799B209B91B0C102213F0FF0F06
:105A500004BF1B0A0832190704BF1B090432990747
:105A600004BF9B080232D90704D45B0801D120206F
:105A700070470132036010467047002070475B0892
:105A800003600120704700BF10B50C460121FFF7ED
:105A90003DFF01224461026110BD00BF2DE9F04FBE
:105AA0000D691769BD4283B00C46164604DA2A46D2
:105AB00034463D460E461746A368616805EB070865
:105AC0009845C8BF0131FFF721FF00F1140C0CEB22
:105AD0008809CC45009005D26346002143F8041B99
